:020000040800F2
:1000000000500020D51500080D1500081315000834
:10001000191500081F15000825150008000000002C
:100020000000000000000000000000002B15000888
:100030003715000800000000431500084F150008A0
:100040001D1600081D1600081D1600081D160008C4
:100050001D1600081D1600081D1600081D160008B4
:100060001D1600081D1600081D1600081D160008A4
:100070001D1600081D1600081D1600081D16000894
:100080001D1600081D1600081D1600081D16000884
:100090001D1600081D1600081D1600081D16000874
:1000A0001D1600081D1600081D1600081D16000864
:1000B0001D1600081D1600081D1600081D16000854
:1000C0001D1600081D1600081D1600081D16000844
:1000D0001D1600081D1600081D1600081D16000834
:1000E0001D1600081D1600081D160008000000005F
:1000F0000000000000000000000000000000000000
:0C01000000000000000000005FF808F1A3
:1001100010B5054C237833B9044B13B10448AFF341
:1001200000800123237010BD5C000020000000004F
:100130008839000808B5034B1BB103490348AFF3E6
:10014000008008BD00000000600000208839000821
:10015000034613F8012B002AFBD1181A0138704707
:1001600070B54FF0FF0C4CF4E06C1CEA11541DBF4D
:100170001CEA135594EA0C0F95EA0C0F00F0DEF818
:100180002C4481EA030621EA4C5123EA4C5350EAFD
:10019000013518BF52EA033541F4801143F480134E
:1001A00038D0A0FB02CE4FF00005E1FB02E506F0DF
:1001B0000042E0FB03E54FF00006E1FB03569CF034
:1001C000000F18BF4EF0010EA4F1FF04B6F5007F3A
:1001D00064F5407404D25FEA4E0E6D4146EB0606AC
:1001E00042EAC62141EA55514FEAC52040EA5E5035
:1001F0004FEACE2EB4F1FD0C88BFBCF5E06F1ED8DF
:10020000BEF1004F08BF5FEA500E50F1000041EB15
:10021000045170BD06F0004646EA010140EA0200C2
:1002200081EA0301B4EB5C04C2BFD4EB0C0541EAE4
:10023000045170BD41F480114FF0000E013C00F3F9
:10024000AB8014F1360FDEBF002001F0004170BD1D
:10025000C4F10004203C35DA0C341BDC04F1140436
:10026000C4F1200500FA05F320FA04F001FA05F2C2
:1002700040EA020001F0004221F0004110EBD3708F
:1002800021FA04F642EB06015EEA430E08BF20EABB
:10029000D37070BDC4F10C04C4F1200500FA04F35E
:1002A00020FA05F001FA04F240EA020001F00041F0
:1002B00010EBD37041F100015EEA430E08BF20EA63
:1002C000D37070BDC4F1200500FA05F24EEA020EAB
:1002D00020FA04F301FA05F243EA020321FA04F0DA
:1002E00001F0004121FA04F220EA020000EBD37091
:1002F0005EEA430E08BF20EAD37070BD94F0000F91
:100300000FD101F00046400041EB010111F4801FC4
:1003100008BF013CF7D041EA060195F0000F18BF75
:10032000704703F00046520043EB030313F4801FB1
:1003300008BF013DF7D043EA0603704794EA0C0F6B
:100340000CEA135518BF95EA0C0F0CD050EA410681
:1003500018BF52EA4306D1D181EA030101F00041FE
:100360004FF0000070BD50EA410606BF1046194626
:1003700052EA430619D094EA0C0F02D150EA013632
:1003800013D195EA0C0F05D152EA03361CBF104673
:1003900019460AD181EA030101F0004141F0FE4112
:1003A00041F470014FF0000070BD41F0FE4141F496
:1003B000780170BD81F0004102E000BF83F000438E
:1003C00030B54FEA41044FEA430594EA050F08BFF0
:1003D00090EA020F1FBF54EA000C55EA020C7FEAB4
:1003E000645C7FEA655C00F0E2804FEA5454D4EB31
:1003F0005555B8BF6D420CDD2C4480EA020281EAFB
:10040000030382EA000083EA010180EA020281EA32
:100410000303362D88BF30BD11F0004F4FEA013184
:100420004FF4801C4CEA113102D0404261EB410193
:1004300013F0004F4FEA03334CEA133302D0524219
:1004400063EB430394EA050F00F0A780A4F10104D5
:10045000D5F1200E0DDB02FA0EFC22FA05F280180F
:1004600041F1000103FA0EF2801843FA05F35941F5
:100470000EE0A5F120050EF1200E012A03FA0EFC74
:1004800028BF4CF0020C43FA05F3C01851EBE3719E
:1004900001F0004507D54FF0000EDCF1000C7EEBBB
:1004A00000006EEB0101B1F5801F1BD3B1F5001FF9
:1004B0000CD349085FEA30004FEA3C0C04F1010418
:1004C0004FEA445212F5800F80F09A80BCF1004F41
:1004D00008BF5FEA500C50F1000041EB045141EAC3
:1004E000050130BD5FEA4C0C404141EB0101013C8C
:1004F00028BFB1F5801FE9D291F0000F04BF01467B
:100500000020B1FA81F308BF2033A3F10B03B3F14C
:1005100020020CDA0C3208DD02F1140CC2F10C02DC
:1005200001FA0CF021FA02F10CE002F11402D8BF3A
:10053000C2F1200C01FA02F120FA0CFCDCBF41EA06
:100540000C019040E41AA2BF01EB0451294330BDD5
:100550006FEA04041F3C1CDA0C340EDC04F11404B2
:10056000C4F1200220FA04F001FA02F340EA030089
:1005700021FA04F345EA030130BDC4F10C04C4F1CF
:10058000200220FA02F001FA04F340EA03002946AF
:1005900030BD21FA04F0294630BD94F0000F83F4F9
:1005A000801306BF81F480110134013D4EE77FEADC
:1005B000645C18BF7FEA655C29D094EA050F08BF28
:1005C00090EA020F05D054EA000C04BF1946104609
:1005D00030BD91EA030F1EBF0021002030BD5FEA4D
:1005E000545C05D14000494128BF41F0004130BD75
:1005F00014F580043CBF01F5801130BD01F00045C9
:1006000045F0FE4141F470014FF0000030BD7FEA3B
:10061000645C1ABF194610467FEA655C1CBF0B4636
:10062000024650EA013406BF52EA033591EA030F4D
:1006300041F4002130BD00BF90F0000F04BF002145
:10064000704730B54FF4806404F132044FF0000578
:100650004FF0000150E700BF90F0000F04BF0021F1
:10066000704730B54FF4806404F1320410F0004557
:1006700048BF40424FF000013EE700BF42004FEA52
:10068000E2014FEA31014FEA02701FBF12F07F43CF
:1006900093F07F4F81F06051704732F07F4208BF86
:1006A000704793F07F4F04BF41F40021704730B58D
:1006B0004FF4607401F0004521F000411CE700BFD9
:1006C00050EA010208BF704730B54FF000050AE05C
:1006D00050EA010208BF704730B511F0004502D55D
:1006E000404261EB41014FF4806404F132045FEA5F
:1006F000915C3FF4D8AE4FF003025FEADC0C18BF08
:1007000003325FEADC0C18BF033202EBDC02C2F1F9
:10071000200300FA03FC20FA02F001FA03FE40EA8B
:100720000E0021FA02F11444BDE600BF4FEA410277
:10073000B2F1E04324BFB3F5001CDCF1FE5C0DD93F
:1007400001F0004C4FEAC0024CEA5070B2F1004F89
:1007500040EB830008BF20F00100704711F0804F8C
:1007600021D113F13872BCBF01F00040704741F451
:1007700080114FEA5252C2F11802C2F1200C10FA55
:100780000CF320FA02F018BF40F001004FEAC12339
:100790004FEAD32303FA0CFC40EA0C0023FA02F3DD
:1007A0004FEA4303CCE77FEA625307D150EA0133B3
:1007B0001EBF4FF0FE4040F44000704701F0004083
:1007C00040F0FE4040F40000704700BF80B582B0AA
:1007D00000AF0346FB710F4B00221A600BE00D4B7C
:1007E0001B6801330B4A13600A4B1B68322B02D97A
:1007F000084B1B680AE02021074801F025FD03464D
:100800001A46FB799A42EAD0024B1B681846083711
:10081000BD4680BD200100200008014090B58DB08C
:1008200000AF7860396007F1080300221A605A604F
:100830009A60DA6001233B610023FB602023BB60E8
:1008400002237B6107F108031946724801F078FB27
:10085000012000F047FF00233B610123FB602023C0
:10086000BB6002237B6107F108031946694801F068
:1008700067FB00222021674801F0FDFC142000F0F6
:1008800031FF01233B610023FB602023BB60022377
:100890007B6107F1080319465E4801F051FB002314
:1008A000FB6203E000BFFB6A0133FB62FB6A9F2B24
:1008B000F8DD00BF2021574801F0C6FC0346002B9D
:1008C000F8D000BF2021534801F0BEFC0346012BA5
:1008D000F8D00023BB6227E00020FFF777FF024635
:1008E0004D49BB6A41F82320BB6A5C1C0120FFF71D
:1008F0006DFF0346484A42F82430BB6A9B007A6881
:1009000013444549BA6A51F822201A60BB6A5A1C3E
:10091000BB6A01339B0079680B443F4951F82220A0
:100920001A60BB6A0233BB62BB6A632BD4DD3B68CF
:10093000013300221A703B68023300221A703B68B0
:10094000033300221A703B68043300221A7000231C
:100950007B623DE07B6ADB007A6813441B68FB61C5
:100960007B6ADB0004337A6813441B68BB61FB6954
:10097000312B02D8BB69312B04D94FF400512748E1
:1009800001F091FC7B6A002B00DA0733DB1019467B
:100990000A463B6813441A783B680B445200D2B2B3
:1009A0001A70BA69FB699A420FD97B6A002B00DA88
:1009B0000733DB1019460A463B6813441A783B6834
:1009C0000B4442F00102D2B21A707B6A01337B629F
:1009D0007B6A272BBEDD3B681A783B6801331B78A6
:1009E0001344DAB23B6802331B781344DAB23B6833
:1009F00003331B78134487F823303B6804331B7898
:100A000097F823209A4200D0FEE700BF3437BD4656
:100A100090BD00BF000801402401002000100140EB
:100A2000B0B5ADF6180D00AF714B07F5FC640FCBF8
:100A300084E80F000023C7F8F03707F61803A3F582
:100A40009B626C49134603C9186004331970531D27
:100A500000221A605A609A60C3F80B200023A7F89E
:100A60000E380023A7F80C3800F0DAFD00F028FB60
:100A700000F026FC00F07EFB00F0F8FB00F0B8FB75
:100A80005D4800F02BFF322000F02CFE5B4800F0A8
:100A900025FF322000F026FE07F5FC631846FFF71D
:100AA00057FB03469AB207F5FC610A23544802F04B
:100AB00029F941F2883000F015FE52495248FFF7FB
:100AC000ADFE504B9B781846FFF7C6FD04460D4619
:100AD0004C4BDB781846FFF7BFFD43A3D3E9002357
:100AE000FFF73EFB02460B4620462946FFF768FC0F
:100AF00002460B4610461946FFF718FE0346C7F894
:100B00000838404B1B781846FFF7A6FD04460D46F3
:100B10003C4B5B781846FFF79FFD33A3D3E90023D6
:100B2000FFF71EFB02460B4620462946FFF748FC0E
:100B300002460B4610461946FFF7F8FD0346C7F874
:100B40000438304B9B78C7F800382E4BDB78C7F859
:100B5000FC372C4B1B78C7F8F8372A4B5B78C7F863
:100B6000F43707F61803A3F2445320221A8007F63D
:100B70001803A3F5A963254A1268114619800233A8
:100B8000120C1A7007F14000D7F8FC37D7F800288C
:100B90001F4902F037FA07F1A400D7F8F437D7F865
:100BA000F8271B4902F02EFA134800F045FF0346D0
:100BB000A7F80E38114800F03FFF0346A7F80C389D
:100BC000B7F80E2807F543731249184602F01AFACF
:100BD000B7F80C2807F536730E49184602F012FADA
:100BE0000023C7F8143825E09A9999999999B93F43
:100BF000B0390008C439000878000020A80000209F
:100C0000D800002044040020B4020020D839000895
:100C1000A0390008A839000807F61803A3F5E26216
:100C2000D7F81438134400221A70D7F81438013357
:100C3000C7F81438D7F81438B3F5967FECDB07F112
:100C4000400207F584731146184602F003FA07F5CF
:100C5000357207F584731146184602F0FBF907F167
:100C6000A40207F584731146184602F0F3F907F55C
:100C7000357207F584731146184602F0EBF907F553
:100C8000437207F584731146184602F0E3F907F53D
:100C9000357207F584731146184602F0DBF907F543
:100CA000367207F584731146184602F0D3F907F53A
:100CB000347207F584731146184602F0CBF940F6FA
:100CC000B83000F00FFD4FF400515B4801F0EBFA33
:100CD00007F61803A3F5AA63584A92E803001860C0
:100CE0000433197007F532731846FFF731FA0346DB
:100CF0009AB207F532710A23514802F003F84FF413
:100D00007A7000F0EFFC07F61803A3F5AC634D4AC8
:100D10001C4613460FCB84E80F0007F52E731846C8
:100D2000FFF716FA03469AB207F52E710A234448D4
:100D300001F0E8FF4FF47A7000F0D4FC07F61803D6
:100D4000A3F27C53404A1C4615460FCD0FC495E8CC
:100D5000070084E8070007F527731846FFF7F8F93E
:100D600003469AB207F527710A23354801F0CAFFF6
:100D70004FF47A7000F0B6FC07F532731946334829
:100D8000FFF74CFD07F61803A3F5AA639B78C7F895
:100D9000003807F61803A3F5AA63DB78C7F8FC3719
:100DA00007F61803A3F5AA631B78C7F8F83707F608
:100DB0001803A3F5AA635B78C7F8F43707F140007E
:100DC000D7F8FC37D7F80028214902F01BF907F1C2
:100DD000A400D7F8F437D7F8F8271D4902F012F924
:100DE0001C4800F07BFD322000F07CFC194800F02C
:100DF00023FE0346A7F80E38174800F06FFD322097
:100E000000F070FC144800F017FE0346A7F80C38F9
:100E1000B7F80E2807F543731049184602F0F2F8A8
:100E2000B7F80C2807F536730D49184602F0EAF8B2
:100E30000023C7F8103823E000100140DC39000817
:100E4000D8000020E4390008F4390008B40200207A
:100E5000A039000878000020A8000020AC39000864
:100E6000A839000807F61803A3F5E262D7F810388E
:100E7000134400221A70D7F810380133C7F810381D
:100E8000D7F81038B3F5967FECDB07F1400207F591
:100E900084731146184602F0DDF807F5357207F540
:100EA00084731146184602F0D5F807F1A40207F53D
:100EB00084731146184602F0CDF807F5357207F530
:100EC00084731146184602F0C5F807F5437207F51A
:100ED00084731146184602F0BDF807F5357207F520
:100EE00084731146184602F0B5F807F5367207F517
:100EF00084731146184602F0ADF807F5347207F511
:100F000084731146184602F0A5F84FF40051644866
:100F100001F0C9F907F61803A3F61403614A1C4649
:100F200015460FCD0FC40FCD0FC40FCD0FC495E8DC
:100F3000070003C422703B1D1846FFF709F903465A
:100F40009AB2391D0A23584801F0DCFE4FF47A703A
:100F500000F0C8FB07F61803A3F5B263534A1C461A
:100F600015460FCD0FC42B68236007F52273184672
:100F7000FFF7EEF803469AB207F522710A234A48B2
:100F800001F0C0FE0A2000F0ADFB07F61803A3F540
:100F9000B363474A92E8030083E8030007F5207330
:100FA0001846FFF7D5F803469AB207F520710A23D1
:100FB0003D4801F0A7FE4FF47A7000F093FB07F66E
:100FC0001803A3F5B6633B4A1C4615460FCD0FC464
:100FD00095E8030020600434218002340B0C237058
:100FE00007F51A731846FFF7B3F803469AB207F5E8
:100FF0001A710A232C4801F085FE0A2000F072FBCA
:1010000007F584731846FFF7A3F803469AB207F56D
:1010100084714FF4FA73244801F074FE4FF47A702F
:1010200000F060FB07F61803A3F2CC53224A1C46DB
:1010300015460FCD0FC495E8070003C4227007F5CD
:1010400013731846FFF784F803469AB207F5137135
:101050000A23154801F056FE4FF47A7000F042FB67
:1010600007F61803A3F2E453144A1C4615460FCDA5
:101070000FC495E8030020600434217007F50D7358
:101080001846FFF765F803469AB207F50D710A2373
:10109000054801F037FE4FF47A7000F023FB6BE651
:1010A00000100140103A0008D80000204C3A000817
:1010B000603A0008683A0008803A00089C3A000844
:1010C00080B594B000AF07F128032822002118460C
:1010D00001F0B8FF07F1140300221A605A609A6009
:1010E000DA601A613B1D00221A605A609A60DA6069
:1010F0000123BB624FF48033FB6200233B63012377
:10110000BB6302237B644FF48033BB644FF4002342
:10111000FB6407F12803184601F0DEF80346002BB4
:1011200001D000F019F90F237B610223BB6100237A
:10113000FB6100233B6200237B6207F11403012162
:10114000184601F04BFB0346002B01D000F004F9D8
:1011500002237B604FF48043FB603B1D184601F087
:10116000CBFC0346002B01D000F0F6F800BF50374F
:10117000BD4680BD80B584B000AF3B1D00221A6023
:101180005A609A60184B194A1A60174B00229A60ED
:10119000154B00221A73144B00221A75124B4FF490
:1011A0006022DA61104B00225A600F4B01221A6153
:1011B0000D4800F0BBFA0346002B01D000F0CCF83C
:1011C00006237B600123BB600023FB603B1D1946A7
:1011D000054800F03DFC0346002B01D000F0BCF8B0
:1011E00000BF1037BD4680BD7800002000240140BC
:1011F00080B584B000AF3B1D00221A605A609A602F
:10120000184B194A1A60174B00229A60154B00229E
:101210001A73144B00221A75124B4FF46022DA61D4
:10122000104B00225A600F4B01221A610D4800F04A
:101230007DFA0346002B01D000F08EF807237B6077
:101240000123BB600023FB603B1D1946054800F0ED
:10125000FFFB0346002B01D000F07EF800BF1037E3
:10126000BD4680BDA80000200028014080B500AF29
:10127000114B124A1A60104B4FF4E1325A600E4B78
:1012800000229A600C4B0022DA600B4B00221A619C
:10129000094B0C225A61084B00229A61064B00222E
:1012A000DA61054801F0DEFC0346002B01D000F0B6
:1012B00053F800BF80BD00BFD800002000380140B7
:1012C00080B588B000AF07F1100300221A605A60A1
:1012D0009A60DA601E4B9B691D4A43F010039361CC
:1012E0001B4B9B6903F01003FB60FB68184B9B6969
:1012F000174A43F020039361154B9B6903F02003C9
:10130000BB60BB68124B9B69114A43F004039361B5
:101310000F4B9B6903F004037B607B6800224FF452
:1013200000510C4800F0A7FF4FF400533B6101232C
:101330007B610023BB610223FB6107F110031946A7
:10134000044800F0FDFD00BF2037BD4680BD00BF52
:10135000001002400010014080B400AF72B600BF20
:10136000FEE7000080B483B000AF0E4B9B690D4ACE
:1013700043F0010393610B4B9B6903F001037B6016
:101380007B68084BDB69074A43F08053D361054B08
:10139000DB6903F080533B603B6800BF0C37BD4600
:1013A00080BC70470010024080B58AB000AF786002
:1013B00007F1180300221A605A609A60DA607B68AD
:1013C0001B68284A934222D1274B9B69264A43F443
:1013D00000739361244B9B6903F400737B617B6909
:1013E000214B9B69204A43F0040393611E4B9B6988
:1013F00003F004033B613B694023BB610323FB61B2
:1014000007F118031946194800F09AFD26E07B6899
:101410001B68174A934221D1134B9B69124A43F42C
:1014200080639361104B9B6903F48063FB60FB68EE
:101430000D4B9B690C4A43F0040393610A4B9B6973
:1014400003F00403BB60BB688023BB610323FB6123
:1014500007F118031946054800F072FD00BF283750
:10146000BD4680BD0024014000100240000801403C
:101470000028014080B588B000AF786007F1100304
:1014800000221A605A609A60DA607B681B681C4A06
:10149000934231D11B4B9B691A4A43F480439361B9
:1014A000184B9B6903F48043FB60FB68154B9B69F9
:1014B000144A43F004039361124B9B6903F0040345
:1014C000BB60BB684FF400733B6102237B61032365
:1014D000FB6107F1100319460B4800F031FD4FF492
:1014E00080633B6100237B610023BB6107F1100334
:1014F0001946054800F024FD00BF2037BD4680BDD9
:1015000000380140001002400008014080B400AFE4
:10151000FEE780B400AFFEE780B400AFFEE780B422
:1015200000AFFEE780B400AFFEE780B400AF00BFBD
:10153000BD4680BC704780B400AF00BFBD4680BCD4
:10154000704780B400AF00BFBD4680BC704780B517
:1015500000AF00F0ABF800BF80BD000080B586B0E2
:1015600000AF7860144A154BD31A7B617B693B61ED
:10157000134B1B68002B02D1114B124A1A60104BFF
:101580001A687B6813443A699A4207D201F072FDE7
:1015900003460C221A604FF0FF3309E0084B1B682A
:1015A000FB60074B1A687B681344054A1360FB68AD
:1015B00018461837BD4680BD0050002000040000CA
:1015C000480400209805002080B400AF00BFBD464D
:1015D00080BC7047FFF7F8FF0B480C490C4A00230A
:1015E00002E0D458C4500433C4188C42F9D3094AD9
:1015F000094C002301E013600432A242FBD301F046
:101600003FFDFFF70DFA7047000000205C0000204E
:101610001C3B00085C00002098050020FEE700004D
:1016200080B500AF084B1B68074A43F010031360F6
:10163000032000F051FC0F2000F008F8FFF792FEA5
:101640000023184680BD00BF0020024080B582B054
:1016500000AF7860124B1A68124B1B7819464FF492
:101660007A73B3FBF1F3B2FBF3F3184600F05BFCC3
:101670000346002B01D001230EE07B680F2B0AD814
:10168000002279684FF0FF3000F031FC064A7B6899
:101690001360002300E0012318460837BD4680BDD3
:1016A00000000020080000200400002080B400AFEB
:1016B000054B1B781A46054B1B681344034A1360FD
:1016C00000BFBD4680BC7047080000204C040020CD
:1016D00080B400AF024B1B681846BD4680BC704703
:1016E0004C04002080B584B000AF7860FFF7F0FFB5
:1016F000B8607B68FB60FB68B3F1FF3F05D00A4B25
:101700001B781A46FB681344FB6000BFFFF7E0FF3D
:101710000246BB68D31AFA689A42F7D800BF00BFE6
:101720001037BD4680BD00BF0800002080B586B0E0
:1017300000AF78600023FB7500233B610023BB6092
:101740000023FB607B68002B01D10123BEE07B6896
:101750009B68002B7B689B6A002B09D17B68002269
:10176000DA627B68002283F824207868FFF71CFE89
:10177000786800F0BFFA0346FB757B689B6A03F04C
:101780001003002B40F09980FB7D002B40F09580EA
:101790007B689B6A23F4885323F0020343F0020220
:1017A0007B689A627B685A687B68DB691A437B684E
:1017B0001B7B5B001343BA681343BB607B689B6869
:1017C000B3F5807F03D07B689B68012B02D14FF477
:1017D000807300E000233A6913433B617B681B7D03
:1017E000012B19D17B681B7B002B09D17B689B697E
:1017F000013B5A033B69134343F400633B610BE035
:101800007B689B6A43F020027B689A627B68DB6A94
:1018100043F001027B68DA627B681B685B6823F433
:1018200069417B681B683A690A435A607B681B6898
:101830009A68284B13407A681268B9680B43936022
:101840007B689B68B3F5807F03D07B689B68012B26
:1018500004D17B681B69013B1B05FB607B681B682F
:10186000DB6A23F470017B681B68FA680A43DA625A
:101870007B681B689A68184B1340BA689A420BD170
:101880007B680022DA627B689B6A23F0030343F0E3
:1018900001027B689A6218E07B689B6A23F012035E
:1018A00043F010027B689A627B68DB6A43F00102B6
:1018B0007B68DA620123FB7507E07B689B6A43F073
:1018C00010027B689A620123FB75FB7D184618376E
:1018D000BD4680BDFDF7E1FFFE0E1FFF80B584B061
:1018E00000AF78600023FB737B6893F82430012BF2
:1018F00001D1022398E07B68012283F824207868D4
:1019000000F09EF90346FB73FB7B002B40F08780C1
:101910007B689B6A23F4407323F0010343F48072D5
:101920007B689A627B681B68414A934205D1414BB0
:101930005B6803F47023002B15D17B689B6A23F44A
:1019400080127B689A627B681B685B6803F4806323
:10195000002B26D07B689B6A23F4405343F48052CB
:101960007B689A621DE07B689B6A43F480127B6807
:101970009A627B681B682F4A934204D07B681B687D
:101980002B4A93420DD12B4B5B6803F48063002BF1
:1019900007D07B689B6A23F4405343F480527B68F2
:1019A0009A627B689B6A03F48053002B06D07B68A5
:1019B000DB6A23F006027B68DA6202E07B680022C1
:1019C000DA627B68002283F824207B681B686FF052
:1019D00002021A607B681B689B6803F46023B3F5FE
:1019E000602F13D17B681B68114A934205D1114BBC
:1019F0005B6803F47023002B08D17B681B689A682E
:101A00007B681B6842F4A0029A600CE07B681B684C
:101A10009A687B681B6842F480129A6003E07B68D6
:101A2000002283F82420FB7B18461037BD4680BD7A
:101A3000002801400024014080B483B000AF7860EA
:101A40007B681B68DB6C18460C37BD4680BC704752
:101A500080B485B000AF786039600023FB73002349
:101A6000BB607B6893F82430012B01D10223DCE0BA
:101A70007B68012283F824203B685B68062B1CD816
:101A80007B681B68596B3B685A6813469B0013447C
:101A9000053B1F2202FA03F3DB4319403B68186839
:101AA0003B685A6813469B001344053B00FA03F257
:101AB0007B681B680A435A633CE03B685B680C2BFD
:101AC0001CD87B681B68196B3B685A6813469B00DF
:101AD0001344233B1F2202FA03F3DB4319403B6804
:101AE00018683B685A6813469B001344233B00FA6E
:101AF00003F27B681B680A431A631BE07B681B6860
:101B0000D96A3B685A6813469B001344413B1F2225
:101B100002FA03F3DB4319403B6818683B685A68D4
:101B200013469B001344413B00FA03F27B681B6899
:101B30000A43DA623B681B68092B1CD97B681B6867
:101B4000D9683B681A6813465B0013441E3B0722A2
:101B500002FA03F3DB4319403B6898683B681A6854
:101B600013465B0013441E3B00FA03F27B681B68BC
:101B70000A43DA6019E07B681B6819693B681A68D8
:101B800013465B001344072202FA03F3DB431940B8
:101B90003B6898683B681A6813465B00134400FA78
:101BA00003F27B681B680A431A613B681B68102BB1
:101BB00003D03B681B68112B32D17B681B681D4A20
:101BC000934225D17B681B689B6803F40003002BBC
:101BD00026D17B681B689A687B681B6842F4000208
:101BE0009A603B681B68102B1AD1134B1B68134A71
:101BF000A2FB03239A0C13469B0013445B00BB60BB
:101C000002E0BB68013BBB60BB68002BF9D107E079
:101C10007B689B6A43F020027B689A620123FB7316
:101C20007B68002283F82420FB7B18461437BD46CE
:101C300080BC7047002401400000002083DE1B436D
:101C400080B584B000AF78600023FB600023BB60E8
:101C50007B681B689B6803F00103012B40D07B6805
:101C60001B689A687B681B6842F001029A601F4BF0
:101C70001B681F4AA2FB03239B0CBB6002E0BB68EE
:101C8000013BBB60BB68002BF9D1FFF721FDF86079
:101C90001FE0FFF71DFD0246FB68D31A022B18D97F
:101CA0007B681B689B6803F00103012B11D07B68E4
:101CB0009B6A43F010027B689A627B68DB6A43F0A0
:101CC00001027B68DA627B68002283F8242001230A
:101CD00007E07B681B689B6803F00103012BD8D1E8
:101CE000002318461037BD4680BD00BF000000200D
:101CF00083DE1B4380B584B000AF78600023FB60B7
:101D00007B681B689B6803F00103012B2ED17B6865
:101D10001B689A687B681B6822F001029A60FFF7D3
:101D2000D7FCF8601BE0FFF7D3FC0246FB68D31A30
:101D3000022B14D97B681B689B6803F00103012BFD
:101D40000DD17B689B6A43F010027B689A627B68C6
:101D5000DB6A43F001027B68DA62012307E07B68FB
:101D60001B689B6803F00103012BDCD0002318469D
:101D70001037BD4680BD000080B485B000AF7860EC
:101D80007B6803F00703FB600C4BDB68BB60BA6841
:101D90004FF6FF031340BB60FB681A02BB68134396
:101DA00043F0BF6343F40033BB60044ABB68D360B5
:101DB00000BF1437BD4680BC704700BF00ED00E097
:101DC00080B400AF044BDB681B0A03F0070318461E
:101DD000BD4680BC704700BF00ED00E080B483B01A
:101DE00000AF03463960FB7197F90730002B0ADB1F
:101DF0003B68DAB20C4997F907301201D2B20B44B2
:101E000083F800230AE03B68DAB20849FB7903F063
:101E10000F03043B1201D2B20B441A7600BF0C37F9
:101E2000BD4680BC704700BF00E100E000ED00E06F
:101E300080B489B000AFF860B9607A60FB6803F0E5
:101E40000703FB61FB69C3F10703042B28BF0423CD
:101E5000BB61FB690433062B02D9FB69033B00E03D
:101E600000237B614FF0FF32BB6902FA03F3DA43D0
:101E7000BB681A407B699A404FF0FF317B6901FAD9
:101E800003F3D9437B680B40134318462437BD4600
:101E900080BC704780B582B000AF78607B68013B42
:101EA000B3F1807F01D301230FE00A4A7B68013B35
:101EB00053600F214FF0FF30FFF790FF054B0022DA
:101EC0009A60044B07221A60002318460837BD4663
:101ED00080BD00BF10E000E080B582B000AF786048
:101EE0007868FFF749FF00BF0837BD4680BD80B561
:101EF00086B000AF0346B9607A60FB7300237B6154
:101F0000FFF75EFF78617A68B9687869FFF790FF3C
:101F1000024697F90F3011461846FFF75FFF00BFE2
:101F20001837BD4680BD80B582B000AF7860786854
:101F3000FFF7B0FF034618460837BD4680BD0000D6
:101F400080B48BB000AF7860396000237B620023DF
:101F50003B6269E101227B6A02FA03F3FB613B68A1
:101F60001B68FA691340BB61BA69FB699A4240F089
:101F700058813B685B689A4A93425ED0984A934284
:101F800075D8984A934258D0964A93426FD8964A49
:101F9000934252D0944A934269D8944A93424CD087
:101FA000924A934263D8924A934246D0904A9342CF
:101FB0005DD8122B2AD8122B59D801A252F823F03F
:101FC0003B20000815200008272000086920000891
:101FD0006F2000086F2000086F2000086F200008A5
:101FE0006F2000086F2000086F2000086F20000895
:101FF0006F2000086F2000086F2000086F20000885
:102000006F2000081D20000831200008794A934203
:1020100013D02CE03B68DB683B6229E03B68DB685F
:1020200004333B6224E03B68DB6808333B621FE01B
:102030003B68DB680C333B621AE03B689B68002B13
:1020400002D104233B6213E03B689B68012B05D15E
:1020500008233B627B68FA691A6109E008233B6246
:102060007B68FA695A6103E000233B6200E000BF2D
:10207000BB69FF2B01D87B6801E07B6804337B617F
:10208000BB69FF2B02D87B6A9B0002E07B6A083B9E
:102090009B003B617B691A680F213B6901FA03F3DE
:1020A000DB431A40396A3B6901FA03F31A437B693F
:1020B0001A603B685B6803F08053002B00F0B1802E
:1020C0004D4B9B694C4A43F0010393614A4B9B691A
:1020D00003F00103BB60BB68484A7B6A9B0802337C
:1020E00052F82330FB607B6A03F003039B000F224E
:1020F00002FA03F3DB43FA681340FB607B68404A53
:10210000934213D07B683F4A93420DD07B683E4A8E
:10211000934207D07B683D4A934201D1032306E0F6
:10212000042304E0022302E0012300E000237A6A92
:1021300002F0030292009340FA681343FB602F49B8
:102140007B6A9B080233FA6841F823203B685B688E
:1021500003F48013002B06D02D4B9A682C49BB69E1
:1021600013438B6006E02A4B9A68BB69DB4328491E
:1021700013408B603B685B6803F40013002B06D0B0
:10218000234BDA682249BB691343CB6006E0204B3E
:10219000DA68BB69DB431E491340CB603B685B6870
:1021A00003F40033002B06D0194B5A681849BB6959
:1021B00013434B6006E0164B5A68BB69DB43144976
:1021C00013404B603B685B6803F48033002B21D0E5
:1021D0000F4B1A680E49BB6913430B6021E000BF27
:1021E0000000321000003110000022100000211009
:1021F0000000121000001110001002400000014009
:1022000000080140000C0140001001400014014092
:10221000000401400B4B1A68BB69DB4309491340BA
:102220000B607B6A01337B623B681A687B6A22FA27
:1022300003F3002B7FF48EAE00BF00BF2C37BD46EA
:1022400080BC70470004014080B485B000AF786066
:102250000B467B807B689A687B881340002B02D0FA
:102260000123FB7301E00023FB73FB7B184614374B
:10227000BD4680BC704780B483B000AF78600B4629
:102280007B8013467B707B78002B03D07A887B6839
:102290001A6103E07B881A047B681A6100BF0C375F
:1022A000BD4680BC704780B485B000AF78600B46F7
:1022B0007B807B68DB68FB607A88FB6813401A04CC
:1022C000FB68D9437B880B401A437B681A6100BFC7
:1022D0001437BD4680BC704780B586B000AF7860CB
:1022E0007B68002B01D1012372E27B681B6803F03D
:1022F0000103002B00F08780924B5B6803F00C0316
:10230000042B0CD08F4B5B6803F00C03082B12D10D
:102310008C4B5B6803F48033B3F5803F0BD1894B62
:102320001B6803F40033002B6CD07B685B68002BC8
:1023300068D101234CE27B685B68B3F5803F06D12E
:10234000804B1B687F4A43F4803313602EE07B6828
:102350005B68002B0CD17B4B1B687A4A23F48033DB
:102360001360784B1B68774A23F4802313601DE0C9
:102370007B685B68B3F5A02F0CD1724B1B68714A68
:1023800043F4802313606F4B1B686E4A43F4803321
:1023900013600BE06B4B1B686A4A23F480331360B5
:1023A000684B1B68674A23F4802313607B685B6873
:1023B000002B13D0FFF78CF9386108E0FFF788F99C
:1023C00002463B69D31A642B01D9032300E25D4B1B
:1023D0001B6803F40033002BF0D014E0FFF778F90A
:1023E000386108E0FFF774F902463B69D31A642BA1
:1023F00001D90323ECE1534B1B6803F40033002B9A
:10240000F0D100E000BF7B681B6803F00203002BE3
:1024100063D04C4B5B6803F00C03002B0BD0494B93
:102420005B6803F00C03082B1CD1464B5B6803F47C
:102430008033002B16D1434B1B6803F00203002BA3
:1024400005D07B681B69012B01D00123C0E13D4B06
:102450001B6823F0F8027B685B69DB003949134392
:102460000B603AE07B681B69002B20D0364B0122C1
:102470001A60FFF72DF9386108E0FFF729F90246E5
:102480003B69D31A022B01D90323A1E12D4B1B6811
:1024900003F00203002BF0D02A4B1B6823F0F80254
:1024A0007B685B69DB00274913430B6015E0264B13
:1024B00000221A60FFF70CF9386108E0FFF708F90D
:1024C00002463B69D31A022B01D9032380E11D4B3D
:1024D0001B6803F00203002BF0D17B681B6803F03C
:1024E0000803002B3AD07B689B69002B19D0174B4F
:1024F00001221A60FFF7ECF8386108E0FFF7E8F80E
:1025000002463B69D31A022B01D9032360E10D4B2C
:102510005B6A03F00203002BF0D0012000F0CEFA3A
:102520001CE00A4B00221A60FFF7D2F838610FE076
:10253000FFF7CEF802463B69D31A022B08D90323D2
:1025400046E100BF001002400000424280044242C7
:10255000924B5B6A03F00203002BE9D17B681B6896
:1025600003F00403002B00F0A6800023FB758B4BC7
:10257000DB6903F08053002B0DD1884BDB69874A60
:1025800043F08053D361854BDB6903F08053BB601C
:10259000BB680123FB75824B1B6803F48073002B1F
:1025A00018D17F4B1B687E4A43F480731360FFF79A
:1025B0008FF8386108E0FFF78BF802463B69D31AC1
:1025C000642B01D9032303E1754B1B6803F480736B
:1025D000002BF0D07B68DB68012B06D16F4B1B6AA8
:1025E0006E4A43F0010313622DE07B68DB68002B29
:1025F0000CD16A4B1B6A694A23F001031362674BD3
:102600001B6A664A23F0040313621CE07B68DB68E4
:10261000052B0CD1614B1B6A604A43F00403136223
:102620005E4B1B6A5D4A43F0010313620BE05B4B98
:102630001B6A5A4A23F001031362584B1B6A574A1C
:1026400023F0040313627B68DB68002B15D0FFF7CF
:102650003FF838610AE0FFF73BF802463B69D31ABE
:1026600041F28832934201D90323B1E04B4B1B6AFC
:1026700003F00203002BEED014E0FFF729F83861D5
:102680000AE0FFF725F802463B69D31A41F2883287
:10269000934201D903239BE0404B1B6A03F00203E2
:1026A000002BEED1FB7D012B05D13C4BDB693B4A76
:1026B00023F08053D3617B68DB69002B00F08780B7
:1026C000364B5B6803F00C03082B61D07B68DB6939
:1026D000022B46D1334B00221A60FEF7F9FF386116
:1026E00008E0FEF7F5FF02463B69D31A022B01D939
:1026F00003236DE0294B1B6803F00073002BF0D11E
:102700007B681B6AB3F5803F08D1244B5B6823F4D8
:1027100000327B689B68214913434B601F4B5B6809
:1027200023F474127B68196A7B685B6A0B431B494C
:1027300013434B601B4B01221A60FEF7C9FF38613F
:1027400008E0FEF7C5FF02463B69D31A022B01D908
:1027500003233DE0114B1B6803F00073002BF0D006
:1027600035E0104B00221A60FEF7B2FF386108E036
:10277000FEF7AEFF02463B69D31A022B01D90323B1
:1027800026E0064B1B6803F00073002BF0D11EE01F
:102790007B68DB69012B07D1012319E0001002409F
:1027A00000700040600042420B4B5B68FB60FB68BE
:1027B00003F480327B681B6A9A4206D1FB6803F4FB
:1027C00070127B685B6A9A4201D0012300E000230B
:1027D00018461837BD4680BD0010024080B584B051
:1027E00000AF786039607B68002B01D10123D0E015
:1027F0006A4B1B6803F007033A689A4210D9674B8B
:102800001B6823F0070265493B6813430B60634B69
:102810001B6803F007033A689A4201D00123B8E02D
:102820007B681B6803F00203002B20D07B681B68C9
:1028300003F00403002B05D0594B5B68584A43F45E
:10284000E06353607B681B6803F00803002B05D02E
:10285000534B5B68524A43F460535360504B5B6880
:1028600023F0F0027B689B684D4913434B607B6803
:102870001B6803F00103002B40D07B685B68012BD1
:1028800007D1474B1B6803F40033002B15D10123FC
:102890007FE07B685B68022B07D1414B1B6803F02C
:1028A0000073002B09D1012373E03D4B1B6803F03B
:1028B0000203002B01D101236BE0394B5B6823F04D
:1028C00003027B685B68364913434B60FEF700FFE9
:1028D000F8600AE0FEF7FCFE0246FB68D31A41F2FC
:1028E0008832934201D9032353E02D4B5B6803F0F8
:1028F0000C027B685B689B009A42EBD1274B1B68FC
:1029000003F007033A689A4210D2244B1B6823F065
:10291000070222493B6813430B60204B1B6803F0FE
:1029200007033A689A4201D0012332E07B681B68B2
:1029300003F00403002B08D0194B5B6823F4E0621A
:102940007B68DB68164913434B607B681B6803F0A8
:102950000803002B09D0124B5B6823F460527B689C
:102960001B69DB000E4913434B6000F021F802465F
:102970000B4B5B681B0903F00F030A49CB5C22FA7F
:1029800003F3094A1360094B1B681846FEF75EFE05
:10299000002318461037BD4680BD00BF002002400E
:1029A00000100240B43A000800000020040000209B
:1029B00080B487B000AF0023FB600023BB6000231E
:1029C0007B6100237B6000233B611E4B5B68FB60E7
:1029D000FB6803F00C03042B02D0082B03D027E084
:1029E000194B3B6127E0FB689B0C03F00F03174A70
:1029F000D35C7B60FB6803F48033002B10D0114B59
:102A00005B685B0C03F00103114AD35CBB607B681D
:102A10000D4A03FB02F2BB68B2FBF3F37B6104E0F7
:102A20007B680C4A02FB03F37B617B693B6102E03C
:102A3000054B3B6100BF3B6918461C37BD4680BC57
:102A4000704700BF0010024000127A00CC3A000824
:102A5000DC3A000800093D0080B400AF024B1B685F
:102A60001846BD4680BC70470000002080B500AF0E
:102A7000FFF7F2FF0246054B5B681B0A03F00703F2
:102A80000349CB5C22FA03F3184680BD00100240D4
:102A9000C43A000880B500AFFFF7DEFF0246054BE1
:102AA0005B68DB0A03F007030349CB5C22FA03F3FC
:102AB000184680BD00100240C43A000880B485B0BA
:102AC00000AF78600A4B1B680A4AA2FB03235B0A2B
:102AD0007A6802FB03F3FB6000BFFB685A1EFA60D2
:102AE000002BF9D100BF00BF1437BD4680BC704732
:102AF00000000020D34D621080B586B000AF786032
:102B000000233B610023FB607B681B6803F001032B
:102B1000002B7DD00023FB754F4BDB6903F0805306
:102B2000002B0DD14C4BDB694B4A43F08053D361F2
:102B3000494BDB6903F08053BB60BB680123FB7525
:102B4000464B1B6803F48073002B18D1434B1B6862
:102B5000424A43F480731360FEF7BAFD386108E01F
:102B6000FEF7B6FD02463B69D31A642B01D9032355
:102B70006DE03A4B1B6803F48073002BF0D0364BAA
:102B80001B6A03F44073FB60FB68002B2ED07B684C
:102B90005B6803F44073FA689A4227D02E4B1B6A95
:102BA00023F44073FB602E4B01221A602C4B002251
:102BB0001A60294AFB681362FB6803F00103002BCB
:102BC00014D0FEF785FD38610AE0FEF781FD02466C
:102BD0003B69D31A41F28832934201D9032336E08C
:102BE0001D4B1B6A03F00203002BEED01A4B1B6A2D
:102BF00023F440727B685B68174913430B62FB7DCB
:102C0000012B05D1144BDB69134A23F08053D361A8
:102C10007B681B6803F00203002B08D00E4B5B6837
:102C200023F440427B689B680B4913434B607B68ED
:102C30001B6803F01003002B08D0074B5B6823F4DC
:102C400080027B68DB68044913434B60002318460D
:102C50001837BD4680BD00BF001002400070004024
:102C60004004424280B582B000AF78607B68002BA0
:102C700001D1012342E07B6893F84130DBB2002BA5
:102C800006D17B68002283F840207868FEF7F2FBCB
:102C90007B68242283F841207B681B68DA687B68A4
:102CA0001B6822F40052DA60786800F01DF97B6836
:102CB0001B681A697B681B6822F490421A617B6862
:102CC0001B685A697B681B6822F02A025A617B687C
:102CD0001B68DA687B681B6842F40052DA607B6824
:102CE00000225A647B68202283F841207B682022DE
:102CF00083F842207B6800225A6300231846083775
:102D0000BD4680BD80B58AB002AFF860B9603B6057
:102D10001346FB8000237B61FB6893F84130DBB2F4
:102D2000202B6DD1BB68002B02D0FB88002B01D17A
:102D3000012366E0FB6800225A64FB68212283F8C5
:102D40004120FEF7C5FC7861FB68FA889A84FB682D
:102D5000FA88DA84FB689B68B3F5805F08D1FB686A
:102D60001B69002B04D10023FB61BB68BB6103E03E
:102D7000BB68FB610023BB612AE03B6800937B6971
:102D800000228021F86800F040F80346002B01D0B3
:102D9000032336E0FB69002B0BD1BB691B881A4665
:102DA000FB681B68C2F308025A60BB690233BB614F
:102DB00007E0FB691A78FB681B685A60FB690133FE
:102DC000FB61FB68DB8C9BB2013B9AB2FB68DA8447
:102DD000FB68DB8C9BB2002BCFD13B6800937B69F7
:102DE00000224021F86800F010F80346002B01D0C3
:102DF000032306E0FB68202283F84120002300E043
:102E0000022318462037BD4680BD80B590B000AF84
:102E1000F860B9603B601346FB7150E0BB6CB3F1E6
:102E2000FF3F4CD0BB6C002B07D0FEF751FC024695
:102E30003B68D31ABA6C9A4241D2FB681B680C33C8
:102E4000BB62BB6A53E8003F7B627B6A23F4D073AA
:102E5000FB63FB681B680C33FA6B7A633B63396B6B
:102E60007A6B41E80023FB62FB6A002BE5D1FB682B
:102E70001B6814337B617B6953E8003F3B613B690E
:102E800023F00103BB63FB681B681433BA6B3A621F
:102E9000FB61F9693A6A41E80023BB61BB69002B19
:102EA000E5D1FB68202283F84120FB68202283F8CB
:102EB0004220FB68002283F8402003230FE0FB68D8
:102EC0001B681A68BB681340BA689A420CBF01239A
:102ED0000023DBB21A46FB799A429FD000231846A2
:102EE0004037BD4680BD000080B584B000AF78603B
:102EF0007B681B681B6923F440517B68DA687B6838
:102F00001B680A431A617B689A687B681B691A43CD
:102F10007B685B691343BB607B681B68DB6823F4D9
:102F2000B05323F00C037A681268B9680B43D3607E
:102F30007B681B685B6923F440717B689A697B68D6
:102F40001B680A435A617B681B682C4A934203D171
:102F5000FFF7A0FDF86002E0FFF788FDF860FA686F
:102F600013469B0013449A001A447B685B689B00DD
:102F7000B2FBF3F3224AA2FB03235B091901FA68AF
:102F800013469B0013449A001A447B685B689B00BD
:102F9000B2FBF3F21A4BA3FB02035B09642000FBB4
:102FA00003F3D31A1B013233154AA2FB03235B0937
:102FB00003F0F0031944FA6813469B0013449A0087
:102FC0001A447B685B689B00B2FBF3F20C4BA3FBDB
:102FD00002035B09642000FB03F3D31A1B013233A5
:102FE000074AA2FB03235B0903F00F027B681B68FF
:102FF0000A449A6000BF1037BD4680BD00380140CA
:103000001F85EB510EB46FF0004100B59CB01DABB5
:1030100002900690079104910848094953F8042B3F
:103020000591006802A9019300F09EF90022029B1D
:103030001A701CB05DF804EB03B070475800002014
:103040000802FFFF03460244934200D1704703F891
:10305000011BF9E7024610B5147813460132002C23
:10306000FAD1013B11F8012B03F8012F002AF9D105
:1030700010BD0000014B1868704700BF58000020C9
:1030800070B500260C4D0D4C641BA410A64209D14E
:1030900000F07AFC00260A4D0A4C641BA410A642DC
:1030A00005D170BD55F8043B98470136EEE755F859
:1030B000043B98470136F2E7143B0008143B000834
:1030C000143B0008183B00087047704738B50546A8
:1030D000002940D051F8043C0C1F002BB8BFE41865
:1030E00000F0DCF81C4A136833B9636014602846AA
:1030F000BDE8384000F0D8B8A34208D920682118AC
:103100008B4201BF19685B6809182160EDE71A4618
:103110005B680BB1A342FAD911685018A0420BD1D9
:1031200020680144501883421160E0D118685B6840
:10313000084410605360DAE702D90C232B60D6E70D
:10314000206821188B4201BF19685B68091821604B
:1031500063605460CBE738BD9005002070B50E4E1B
:103160000C463168054611B900F0AAFB30602146D3
:10317000284600F0A5FB431C0AD0C41C24F003041D
:10318000A04207D0211A284600F09AFB013001D155
:103190004FF0FF34204670BD940500202DE9F84320
:1031A000CD1C25F0030508350C2D38BF0C25002D4E
:1031B000074601DBA94205D90C2300263B603046B7
:1031C000BDE8F883DFF8D08000F068F8D8F8003068
:1031D0001C465CBB29463846FFF7C0FF431C04462B
:1031E00055D1D8F800402646002E45D1002C48D0B5
:1031F00023683146384604EB030900F061FB814542
:103200003FD1216838466D1A2946FFF7A7FF0130E4
:1032100037D023682B442360D8F80030002B38D0F7
:103220005A68A2422BD100225A600FE02268521B3A
:103230001FD40B2A17D96119A342256018BF596002
:10324000636808BFC8F8001062514B60384604F14B
:103250000B0600F029F826F00706231DF21AAED05F
:103260009B1BA350ABE7A3426268DDD1C8F80020E6
:10327000ECE723466468ACE734467668B4E7134667
:10328000CCE70C2338463B6000F00EF897E725604A
:10329000DCE75B60FFDE00BF900500200148FFF720
:1032A00013BF00BF8C0500200148FFF70EBF00BF11
:1032B0008C0500202DE9F0471F468E688246BE42ED
:1032C0000C4690460B682CD88A8912F4906F26D051
:1032D0006569096905EB4505A3EB010905EBD575A2
:1032E0007B1C4B446D109D4238BF1D46530527D5AE
:1032F0002946FFF753FF064660B34A46216900F0AE
:10330000FDFAA38923F4906343F08003A38126612F
:103310004E4426603E466561A5EB0905A560BE42A8
:1033200000D93E4632464146206800F0AFFA002000
:10333000A3689B1BA360236833442360BDE8F08728
:103340002A4600F0E9FA06460028E0D150462169F5
:10335000FFF7BCFE0C23CAF80030A3894FF0FF3002
:1033600043F04003A381E9E72DE9F04F98468B89AC
:1033700007461B060D4614469DB00ED50B6963B972
:103380004021FFF70BFF2860286120B90C233B6028
:103390004FF0FF30D0E040236B61002309932023DE
:1033A0008DF8293030234FF00109CDF80C80DFF87B
:1033B000A0818DF82A3023469A4613F8012B0AB1D2
:1033C000252AF9D1BAEB040B0BD05B4622462946DD
:1033D0003846FFF76FFF013000F0A980099A5A4480
:1033E00009929AF80030002B00F0A18000234FF0E2
:1033F000FF32CDE905230AF1010A049307938DF802
:1034000053301A935446052214F8011B504800F01B
:1034100067FA049AD8B9D00644BF20238DF85330F8
:10342000110744BF2B238DF853309AF800302A2B14
:1034300015D0544600204FF00A0C079A214611F887
:10344000013B303B092B4DD9B0B1079214E0A0EB02
:10345000080309FA03F31343A2460493D2E7039B3C
:10346000191D1B680391002BBBBF5B4242F0020297
:1034700007930793B8BF049223782E2B0CD163785F
:103480002A2B34D1039B02341A1D1B680392002B94
:10349000B8BF4FF0FF330593DFF8B8A003225046C2
:1034A000217800F01DFA38B14022049BA0EB0A00FD
:1034B000824013430134049314F8011B062226486A
:1034C0008DF8281000F00CFA002838D0234B1BBBD5
:1034D000039B073323F0070308330393099B33440B
:1034E000099368E70C4601200CFB0232A6E7002393
:1034F0004FF00A0C194601340593204610F8012BB1
:10350000303A092A03D9002BC6D00591C4E70446F6
:1035100001230CFB0121F0E703AB00932A46384658
:103520000F4B04A9AFF30080421C0646D6D1AB89ED
:103530005B063FF52DAF09981DB0BDE8F08F03ABDA
:1035400000932A463846064B04A900F07DF8EBE7C5
:10355000DE3A0008E43A0008E83A000800000000FB
:10356000B53200082DE9F047164699468A680B697E
:1035700007469342B8BF1346336091F843200C4688
:10358000DDF820800AB1013333602368990642BF19
:10359000336802333360256815F0060506D104F15F
:1035A000190AE36832689B1AAB422BDC94F843207B
:1035B000131E226818BF0123920630D449463846AC
:1035C00004F14302C047013023D02368226903F08D
:1035D0000603042B14BF002533684FF0000608BF14
:1035E000E56804F11A0408BFED1A54F8123C08BF4C
:1035F00025EAE5759342C4BF9B1AED18B5421AD16E
:10360000002008E00123524649463846C0470130B1
:1036100003D14FF0FF30BDE8F0870135C1E730201E
:10362000E11881F843005A1C94F8451022440233F3
:1036300082F84310C2E70123224649463846C04774
:103640000130E6D00136D9E72DE9FF470F7E9146DC
:10365000782F80460C469A460C9D01F1430207D80C
:10366000622F0AD8002F00F0D580582F00F0C180BB
:1036700004F1420584F842703AE0A7F16303152B88
:10368000F6D801A151F823F0E1360008F53600081C
:10369000713600087136000871360008713600086E
:1036A000F5360008713600087136000871360008DA
:1036B00071360008FB37000821370008B5370008CD
:1036C00071360008713600081D3800087136000890
:1036D000213700087136000871360008BD37000830
:1036E0002B681A1D1B682A6004F1420584F84230D9
:1036F0000123A0E020682B68070603F1040129607C
:1037000001D51E6803E04606FBD5B3F90060002E24
:1037100003DA2D23764284F843300A23594812E015
:103720002B682068191D2960050601D51E6802E076
:103730004106FBD51E886F2F0CBF08230A23514872
:10374000002184F843106568002DA8BF2168A5609A
:10375000A4BF21F0040121600EB9002D4BD0154605
:10376000B6FBF3F103FB1167C75D05F8017D374632
:10377000BB420E46F4D9082B0BD12368DE0708D5CF
:10378000236961689942DEBF302305F8013C05F1E9
:10379000FF35521B22614B4621464046CDF800A022
:1037A00003AAFFF7DFFE01304AD14FF0FF3004B02B
:1037B000BDE8F087236843F0200323607827324870
:1037C00084F84570236829681F0651F8046B02D4F9
:1037D0005F0648BFB6B2DF0748BF43F02003296049
:1037E00048BF23601EB9236823F020032360102301
:1037F000A6E72448E4E71546BDE72B682668181DB0
:103800006169286035061B6801D5196002E0700601
:10381000FBD51980002315462361BCE72B680021E6
:103820001A1D2A601D686268284600F059F808B120
:10383000401B606063682361002384F84330AAE77B
:103840002A46494640462369D0470130ADD0236817
:103850009B0713D4E068039B9842B8BF1846A6E7BD
:103860000123324649464046D04701309DD00135BC
:10387000E36803995B1AAB42F2DCEBE7002504F145
:103880001906F5E7EF3A0008003B0008884210B53A
:1038900001EB020402D98442234607D8431EA14209
:1038A00008D011F8012B03F8012FF8E70146024474
:1038B0008A4200D110BD13F8014D02F8014DF7E71F
:1038C00038B50023054D044608462B60FDF746FE3B
:1038D000431C02D12B6803B1236038BD880500204A
:1038E000034610B5C9B202449342184601D10020E4
:1038F00003E0047801338C42F6D110BD0A449142B2
:1039000000F1FF3300D1704710B511F8014B91421F
:1039100003F8014FF9D110BD2DE9F041804614465E
:103920000E4621B91146BDE8F041FFF737BC2AB970
:10393000FFF7CCFB25462846BDE8F08100F01BF8D8
:103940008442074602D8B4EB500F12D821464046B5
:10395000FFF724FC05460028EDD0BC422246314644
:1039600028BF3A46FFF7CAFF31464046FFF7AEFB95
:10397000E1E73546DFE751F8043C181F002BBCBFD8
:103980000B58C01870470000F8B500BFF8BC08BC61
:103990009E467047F8B500BFF8BC08BC9E4670470D
:1039A00025642E2564000000256C64002564000059
:1039B0006769612074726920414443206C613A0058
:1039C000000000000A0A0A0A0000000000000000CF
:1039D00000000000000000000D0A000041540D0A24
:1039E0000000000041542B434D5154545354415254
:1039F000540D0A0041542B434D51545441434351FB
:103A00003D302C22636C69656E744944220D0A00B6
:103A100041542B434D515454434F4E4E4543543D16
:103A2000302C227463703A2F2F746573742E6D6F6F
:103A30007371756974746F2E6F72673A31383833E9
:103A4000222C36302C300D0A0000000041542B434C
:103A50004D515454544F5049433D302C350D0A00BC
:103A6000766F6E616D0D0A0041542B434D515454D5
:103A70005041594C4F41443D302C31340D0A000027
:103A800041542B434D5154545055423D302C312C10
:103A900036302C302C300D0A0000000041542B43EE
:103AA0004D515454444953433D302C3132330D0A67
:103AB00000000000000000000000000001020304FC
:103AC00006070809000000000102030402030405C0
:103AD000060708090A0B0C0D0E0F10100102232D0A
:103AE000302B2000686C4C00656667454647003007
:103AF0003132333435363738394142434445460054
:103B00003031323334353637383961626364656653
:043B100000000000B1
:043B1400350100086F
:043B1800110100088F
:103B1C000024F40010000000010000000000000070
:103B2C0050040020B80400202005002000000000F4
:103B3C000000000000000000000000000000000079
:103B4C000000000000000000000000000000000069
:103B5C000000000000000000000000000000000059
:0C3B6C0000000000000000000C00002021
:04000005080015D505
:00000001FF
